{
  "contractName": "Loan",
  "abi": [
    {
      "constant": true,
      "inputs": [],
      "name": "loanToken",
      "outputs": [
        {
          "name": "",
          "type": "address"
        }
      ],
      "payable": false,
      "stateMutability": "view",
      "type": "function"
    },
    {
      "constant": true,
      "inputs": [],
      "name": "asset",
      "outputs": [
        {
          "name": "",
          "type": "address"
        }
      ],
      "payable": false,
      "stateMutability": "view",
      "type": "function"
    },
    {
      "constant": true,
      "inputs": [],
      "name": "blockNumber",
      "outputs": [
        {
          "name": "",
          "type": "uint256"
        }
      ],
      "payable": false,
      "stateMutability": "view",
      "type": "function"
    },
    {
      "constant": true,
      "inputs": [],
      "name": "percent",
      "outputs": [
        {
          "name": "",
          "type": "uint256"
        }
      ],
      "payable": false,
      "stateMutability": "view",
      "type": "function"
    },
    {
      "constant": true,
      "inputs": [],
      "name": "debtor",
      "outputs": [
        {
          "name": "",
          "type": "address"
        }
      ],
      "payable": false,
      "stateMutability": "view",
      "type": "function"
    },
    {
      "constant": true,
      "inputs": [],
      "name": "tokenID",
      "outputs": [
        {
          "name": "",
          "type": "uint256"
        }
      ],
      "payable": false,
      "stateMutability": "view",
      "type": "function"
    },
    {
      "constant": true,
      "inputs": [],
      "name": "amount",
      "outputs": [
        {
          "name": "",
          "type": "uint256"
        }
      ],
      "payable": false,
      "stateMutability": "view",
      "type": "function"
    },
    {
      "constant": false,
      "inputs": [
        {
          "name": "",
          "type": "address"
        },
        {
          "name": "",
          "type": "uint256"
        },
        {
          "name": "",
          "type": "bytes"
        }
      ],
      "name": "onERC721Received",
      "outputs": [
        {
          "name": "",
          "type": "bytes4"
        }
      ],
      "payable": false,
      "stateMutability": "nonpayable",
      "type": "function"
    },
    {
      "inputs": [
        {
          "name": "_deptor",
          "type": "address"
        },
        {
          "name": "_amount",
          "type": "uint256"
        },
        {
          "name": "_percent",
          "type": "uint256"
        },
        {
          "name": "_blockNumber",
          "type": "uint256"
        },
        {
          "name": "_asset",
          "type": "address"
        },
        {
          "name": "_tokenID",
          "type": "uint256"
        },
        {
          "name": "_loanToken",
          "type": "address"
        }
      ],
      "payable": false,
      "stateMutability": "nonpayable",
      "type": "constructor"
    },
    {
      "payable": true,
      "stateMutability": "payable",
      "type": "fallback"
    },
    {
      "constant": false,
      "inputs": [],
      "name": "lendETH",
      "outputs": [],
      "payable": true,
      "stateMutability": "payable",
      "type": "function"
    },
    {
      "constant": false,
      "inputs": [],
      "name": "releaseAssetToDeptor",
      "outputs": [],
      "payable": true,
      "stateMutability": "payable",
      "type": "function"
    },
    {
      "constant": false,
      "inputs": [],
      "name": "releaseAssetToCreditor",
      "outputs": [],
      "payable": false,
      "stateMutability": "nonpayable",
      "type": "function"
    }
  ],
  "bytecode": "0x6060604052341561000f57600080fd5b60405160e080610d6f83398101604052808051906020019091908051906020019091908051906020019091908051906020019091908051906020019091908051906020019091908051906020019091905050866000806101000a81548173ffffffffffffffffffffffffffffffffffffffff021916908373ffffffffffffffffffffffffffffffffffffffff16021790555085600181905550846002819055508360038190555082600560006101000a81548173ffffffffffffffffffffffffffffffffffffffff021916908373ffffffffffffffffffffffffffffffffffffffff1602179055508160048190555080600660006101000a81548173ffffffffffffffffffffffffffffffffffffffff021916908373ffffffffffffffffffffffffffffffffffffffff16021790555050505050505050610c1a806101556000396000f3006060604052600436106100af576000357c0100000000000000000000000000000000000000000000000000000000900463ffffffff16806306d37817146100b157806338d52e0f1461010657806357e871e71461015b57806370ba1113146101845780637c37be8a146101ad5780639cb64a2d146101b75780639ed57bd01461020c578063a5c42ef114610221578063aa8c217c1461024a578063d16d3df114610273578063f0b9e5ba1461027d575b005b34156100bc57600080fd5b6100c4610354565b604051808273ffffffffffffffffffffffffffffffffffffffff1673ffffffffffffffffffffffffffffffffffffffff16815260200191505060405180910390f35b341561011157600080fd5b61011961037a565b604051808273ffffffffffffffffffffffffffffffffffffffff1673ffffffffffffffffffffffffffffffffffffffff16815260200191505060405180910390f35b341561016657600080fd5b61016e6103a0565b6040518082815260200191505060405180910390f35b341561018f57600080fd5b6101976103a6565b6040518082815260200191505060405180910390f35b6101b56103ac565b005b34156101c257600080fd5b6101ca610631565b604051808273ffffffffffffffffffffffffffffffffffffffff1673ffffffffffffffffffffffffffffffffffffffff16815260200191505060405180910390f35b341561021757600080fd5b61021f610656565b005b341561022c57600080fd5b61023461083f565b6040518082815260200191505060405180910390f35b341561025557600080fd5b61025d610845565b6040518082815260200191505060405180910390f35b61027b61084b565b005b341561028857600080fd5b610300600480803573ffffffffffffffffffffffffffffffffffffffff1690602001909190803590602001909190803590602001908201803590602001908080601f01602080910402602001604051908101604052809392919081815260200183838082843782019150505050505091905050610b4b565b60405180827bffffffffffffffffffffffffffffffffffffffffffffffffffffffff19167bffffffffffffffffffffffffffffffffffffffffffffffffffffffff1916815260200191505060405180910390f35b600660009054906101000a900473ffffffffffffffffffffffffffffffffffffffff1681565b600560009054906101000a900473ffffffffffffffffffffffffffffffffffffffff1681565b60035481565b60025481565b6103ea6103d960646103cb600254600154610b7a90919063ffffffff16565b610bb590919063ffffffff16565b600154610bd090919063ffffffff16565b341415156103f757600080fd5b600660009054906101000a900473ffffffffffffffffffffffffffffffffffffffff1673ffffffffffffffffffffffffffffffffffffffff16636352211e3073ffffffffffffffffffffffffffffffffffffffff166000604051602001526040518263ffffffff167c010000000000000000000000000000000000000000000000000000000002815260040180828152602001915050602060405180830381600087803b15156104a657600080fd5b6102c65a03f115156104b757600080fd5b5050506040518051905073ffffffffffffffffffffffffffffffffffffffff166108fc349081150290604051600060405180830381858888f19350505050151561050057600080fd5b600560009054906101000a900473ffffffffffffffffffffffffffffffffffffffff1673ffffffffffffffffffffffffffffffffffffffff166323b872dd306000809054906101000a900473ffffffffffffffffffffffffffffffffffffffff166004546040518463ffffffff167c0100000000000000000000000000000000000000000000000000000000028152600401808473ffffffffffffffffffffffffffffffffffffffff1673ffffffffffffffffffffffffffffffffffffffff1681526020018373ffffffffffffffffffffffffffffffffffffffff1673ffffffffffffffffffffffffffffffffffffffff1681526020018281526020019350505050600060405180830381600087803b151561061b57600080fd5b6102c65a03f1151561062c57600080fd5b505050565b6000809054906101000a900473ffffffffffffffffffffffffffffffffffffffff1681565b6003544311151561066657600080fd5b600560009054906101000a900473ffffffffffffffffffffffffffffffffffffffff1673ffffffffffffffffffffffffffffffffffffffff166323b872dd30600660009054906101000a900473ffffffffffffffffffffffffffffffffffffffff1673ffffffffffffffffffffffffffffffffffffffff16636352211e3073ffffffffffffffffffffffffffffffffffffffff166000604051602001526040518263ffffffff167c010000000000000000000000000000000000000000000000000000000002815260040180828152602001915050602060405180830381600087803b151561075457600080fd5b6102c65a03f1151561076557600080fd5b505050604051805190506004546040518463ffffffff167c0100000000000000000000000000000000000000000000000000000000028152600401808473ffffffffffffffffffffffffffffffffffffffff1673ffffffffffffffffffffffffffffffffffffffff1681526020018373ffffffffffffffffffffffffffffffffffffffff1673ffffffffffffffffffffffffffffffffffffffff1681526020018281526020019350505050600060405180830381600087803b151561082957600080fd5b6102c65a03f1151561083a57600080fd5b505050565b60045481565b60015481565b3073ffffffffffffffffffffffffffffffffffffffff16600560009054906101000a900473ffffffffffffffffffffffffffffffffffffffff1673ffffffffffffffffffffffffffffffffffffffff1663081812fc6004546000604051602001526040518263ffffffff167c010000000000000000000000000000000000000000000000000000000002815260040180828152602001915050602060405180830381600087803b15156108fd57600080fd5b6102c65a03f1151561090e57600080fd5b5050506040518051905073ffffffffffffffffffffffffffffffffffffffff1614151561093a57600080fd5b6001543414151561094a57600080fd5b600560009054906101000a900473ffffffffffffffffffffffffffffffffffffffff1673ffffffffffffffffffffffffffffffffffffffff166323b872dd6000809054906101000a900473ffffffffffffffffffffffffffffffffffffffff16306004546040518463ffffffff167c0100000000000000000000000000000000000000000000000000000000028152600401808473ffffffffffffffffffffffffffffffffffffffff1673ffffffffffffffffffffffffffffffffffffffff1681526020018373ffffffffffffffffffffffffffffffffffffffff1673ffffffffffffffffffffffffffffffffffffffff1681526020018281526020019350505050600060405180830381600087803b1515610a6557600080fd5b6102c65a03f11515610a7657600080fd5b505050600660009054906101000a900473ffffffffffffffffffffffffffffffffffffffff1673ffffffffffffffffffffffffffffffffffffffff16637eaa6601336040518263ffffffff167c0100000000000000000000000000000000000000000000000000000000028152600401808273ffffffffffffffffffffffffffffffffffffffff1673ffffffffffffffffffffffffffffffffffffffff168152602001915050600060405180830381600087803b1515610b3557600080fd5b6102c65a03f11515610b4657600080fd5b505050565b600063f0b9e5ba7c01000000000000000000000000000000000000000000000000000000000290509392505050565b6000806000841415610b8f5760009150610bae565b8284029050828482811515610ba057fe5b04141515610baa57fe5b8091505b5092915050565b6000808284811515610bc357fe5b0490508091505092915050565b6000808284019050838110151515610be457fe5b80915050929150505600a165627a7a7230582008ff96dbd87052c0ac594a49d293061451d4bcb96a2ed664bbf9da4a632418bb0029",
  "source": "pragma solidity ^0.4.18;\n\nimport \"./ERC721BasicToken.sol\";\nimport \"./ERC721Holder.sol\";\nimport \"./LoanToken.sol\";\n\n\ncontract Loan is ERC721Holder {\n\n\tusing SafeMath for uint256;\n\n\taddress public debtor;\n\tuint256 public amount;\n\tuint256 public percent;\n\tuint256 public blockNumber;\n\tuint256 public tokenID;\n\tERC721BasicToken public asset;\n\n\n\tLoanToken public loanToken;\n\n\tfunction Loan(address _deptor, uint256 _amount, uint256 _percent, uint256 _blockNumber, address _asset, uint256 _tokenID, LoanToken _loanToken) {\n\t\tdebtor = _deptor;\n\t\tamount = _amount;\n\t\tpercent = _percent;\n\t\tblockNumber = _blockNumber;\n\t\tasset = ERC721BasicToken(_asset);\n\t\ttokenID = _tokenID;\n\t\tloanToken = _loanToken;\n\t}\n\n\tfunction () payable {}\n\n\tfunction lendETH() public payable {\n\t\trequire(asset.getApproved(tokenID) == address(this));\n\t\trequire(msg.value == amount);\n\t\tasset.transferFrom(debtor, this, tokenID);\n\t\tloanToken.setLoanCreditor(msg.sender);\n\t}\n\n\tfunction releaseAssetToDeptor() public payable {\n\t\trequire(msg.value == amount.add(amount.mul(percent).div(100)));\n\t\tloanToken.ownerOf(uint256(address(this))).transfer(msg.value);\n\t\tasset.transferFrom(this, debtor, tokenID);\n\t}\n\n\tfunction releaseAssetToCreditor() public {\n\t\trequire(block.number > blockNumber);\n\t\tasset.transferFrom(this, loanToken.ownerOf(uint256(address(this))), tokenID);\n\t}\n\n\n}\n\n",
  "sourcePath": "/home/nick/Projects/loan721ERC/contracts/Loan.sol",
  "compiler": {
    "name": "solc",
    "version": "0.4.19+commit.c4cbbb05.Emscripten.clang"
  },
  "schemaVersion": "2.0.0",
  "updatedAt": "2018-03-24T18:47:48.048Z"
}